S01700004763634170706C69636174696F6E312E737265635B
S11300000C9434000C9446000C9446000C94460066
S11300100C9446000C9446000C9446000C94460044
S11300200C9446000C9446000C9446000C94460034
S11300300C9446000C9446000C9446000C94460024
S11300400C9446000C9446000C9446000C94460014
S11300500C9446000C9446000C9446000C94460004
S11300600C9446000C94460011241FBECFEFD8E038
S1130070DEBFCDBF21E0A0E0B1E001C01D92A13000
S1130080B207E1F70E9453000C9480000C94000026
S1130090809100018E3031F49BB180E489278BB9C3
S11300A01092000108958AB184648AB987B18F7E61
S11300B087B98BB18F7B8BB9349914C034990EC036
S11300C00E9448008FE19EE40197F1F700C0000010
S11300D0809100018F5F80930001F0CF9BB184E099
S11300E089278BB90E9448008FE19EE40197F1F7BC
S11300F000C00000809100018F5F80930001DCCF7D
S1070100F894FFCF9D
S9030000FC
