:100000000C9434000C9451000C9451000C94510049
:100010000C9451000C9451000C9451000C9451001C
:100020000C9451000C9451000C9451000C9451000C
:100030000C9451000C9451000C9451000C945100FC
:100040000C9451000C9451000C9451000C945100EC
:100050000C9451000C9451000C9451000C945100DC
:100060000C9451000C94510011241FBECFEFD8E026
:10007000DEBFCDBF11E0A0E0B1E0EAE8F1E002C0F0
:1000800005900D92A230B107D9F721E0A2E0B1E0CE
:1000900001C01D92A330B207E1F70E9453000C94F7
:1000A000C3000C9400008AB184648AB987B18F7C44
:1000B00087B9809100018130A1F4809101018832DB
:1000C00031F49BB180E489278BB9109201018091B2
:1000D0000201863431F49BB184E089278BB91092F8
:1000E0000201809100018230A1F4809101018A35E2
:1000F00031F49BB180E489278BB910920101809182
:100100000201843131F49BB184E089278BB91092CC
:100110000201359912C086B1359902C086B1FCCF73
:1001200080910001813021F482E08093000105C0BC
:10013000823019F481E080930001359B13C034991B
:1001400011C0359B02C0349BFCCF809100018130EF
:1001500021F482E08093000105C0823019F481E02F
:1001600080930001809101018F5F80930101809154
:1001700002018F5F809302018FE19EE40197F1F706
:0A01800000C0000096CFF894FFCFF6
:02018A00010171
:00000001FF
