S01700004763634170706C69636174696F6E322E737265635A
S11300000C9434000C9451000C9451000C94510045
S11300100C9451000C9451000C9451000C94510018
S11300200C9451000C9451000C9451000C94510008
S11300300C9451000C9451000C9451000C945100F8
S11300400C9451000C9451000C9451000C945100E8
S11300500C9451000C9451000C9451000C945100D8
S11300600C9451000C94510011241FBECFEFD8E022
S1130070DEBFCDBF11E0A0E0B1E0EEE8F1E002C0E8
S113008005900D92A230B107D9F721E0A2E0B1E0CA
S113009001C01D92A330B207E1F70E9453000C94F3
S11300A0C5000C9400008AB184648AB987B18F7C3E
S11300B087B9809100018130A1F4809101018832D7
S11300C031F495B180E4892785B9109201018091BA
S11300D00201863431F495B184E0892785B9109200
S11300E00201809100018230A1F4809101018A35DE
S11300F031F495B180E4892785B91092010180918A
S11301000201843131F495B184E0892785B91092D4
S11301100201349913C086B1349902C086B1FCCF70
S113012080910001813019F482E080930001809174
S11301300001823019F481E080930001349B14C0E3
S1130140359912C0349B02C0359BFCCF80910001CD
S1130150813019F482E080930001809100018230A3
S113016019F481E080930001809101018F5F8093F5
S11301700101809102018F5F809302018FE19EE46F
S11101800197F1F700C0000094CFF894FFCF70
S105018E010169
S9030000FC
