S0130000736F6C7563696F6E325F322E73726563E2
S11300000C9434000C9446000C9446000C94460066
S11300100C9446000C9446000C9446000C94460044
S11300200C9446000C9446000C9446000C94460034
S11300300C9446000C9446000C9446000C94460024
S11300400C9446000C9446000C9446000C94460014
S11300500C9446000C9446000C9446000C94460004
S11300600C9446000C94460011241FBECFEFD8E038
S1130070DEBFCDBF21E0A0E0B1E001C01D92A230FF
S1130080B207E1F70E9472000C94A8000C940000DF
S113009080910101803531F49BB180E489278BB9CB
S11300A010920101809100018C3831F49BB184E0FD
S11300B089278BB910920001089580910101843B36
S11300C031F49BB180E489278BB9109201018091AE
S11300D00001883231F49BB184E089278BB91092F6
S11300E0000108958AB184648AB98BB18B7B8BB982
S11300F08FEC87B9349915C0349913C00E94480015
S11301008FE097E20197F1F700C0000080910101B0
S11301108F5F80930101809100018F5F80930001C4
S1130120EBCF3599E7CF3599E5CF0E945D008FE09D
S113013097E20197F1F700C00000809101018F5F01
S113014080930101809100018F5F80930001EBCFC8
S1070150F894FFCF4D
S9030000FC
