:100000000C9434000C9446000C9446000C9446006A
:100010000C9446000C9446000C9446000C94460048
:100020000C9446000C9446000C9446000C94460038
:100030000C9446000C9446000C9446000C94460028
:100040000C9446000C9446000C9446000C94460018
:100050000C9446000C9446000C9446000C94460008
:100060000C9446000C94460011241FBECFEFD8E03C
:10007000DEBFCDBF21E0A0E0B1E001C01D92A33002
:10008000B207E1F70E9461000C9475000C94000027
:10009000809102018F5F80930201909101019F5F27
:1000A00090930101803521F48FEB8BB910920201FE
:1000B000809101018C3821F48BEF8BB910920101F2
:1000C00008958AB184648AB98BB18B7B8BB98FEC2C
:1000D00087B981E0809300010E9448008FE097E299
:0E00E0000197F1F700C00000F4CFF894FFCFB5
:00000001FF
