S01700004763634170706C69636174696F6E322E737265635A
S11300000C9434000C9451000C9451000C94510045
S11300100C9451000C9451000C9451000C94510018
S11300200C9451000C9451000C9451000C94510008
S11300300C9451000C9451000C9451000C945100F8
S11300400C9451000C9451000C9451000C945100E8
S11300500C9451000C9451000C9451000C945100D8
S11300600C9451000C94510011241FBECFEFD8E022
S1130070DEBFCDBF11E0A0E0B1E0E6EFF0E002C0EA
S113008005900D92A431B107D9F721E0A4E1B1E0C4
S113009001C01D92A531B207E1F70E9453000C94F0
S11300A079000C9400008FEF8AB985B98AB915B824
S11300B0809114018F5F809314018A3010F01092A4
S11300C01401E0911401F0E0E65FFE4F808185B9F0
S11300D0E0911401F0E0E050FF4F80818BB92FEFE5
S11300E084E39CE0215080409040E1F700C0000090
S10900F0DFCFF894FFCFFE
S11300F63F065B4F666D7C077F67C0F9A4B0999293
S107010683F880985E
S9030000FC
