S0180000636F6E7461646F72446973706C6179342E73726563A8
S11300000C9434000C94F3000C9412010C945100E1
S11300100C9451000C9451000C9451000C94510018
S11300200C9451000C9451000C9451000C94510008
S11300300C9451000C9451000C9451000C945100F8
S11300400C94C2000C9451000C9451000C94510077
S11300500C9451000C9451000C9451000C945100D8
S11300600C9451000C94510011241FBECFEFD8E022
S1130070DEBFCDBF11E0A0E0B1E0E2E8F3E002C0F2
S113008005900D92A430B107D9F721E0A4E0B1E0C6
S113009001C01D92AD30B207E1F70E9456010C94E5
S11300A0BF010C94000080910701811145C080912B
S11300B005018F5F80930501813061F48BB1806805
S11300C08BB985B1807F90910301892B85B98BB160
S11300D08F7E8BB980910501823061F48BB1806190
S11300E08BB985B1807F90910201892B85B98BB141
S11300F08F7D8BB980910501833061F48BB180626F
S11301008BB985B1807F90910101892B85B98BB121
S11301108F7B8BB980910501843071F48BB180643D
S11301208BB985B1807F90910001892B85B98BB102
S11301308F778BB9109205010895809103018F5F29
S1130140809303018A30E9F4109203018091020143
S11301508F5F809302018630A1F410920201809196
S113016001018F5F809301018A3059F410920101DB
S1130170809100018F5F809300018A3011F4109206
S1130180000108951F920F920FB60F9211242F931E
S11301903F934F935F936F937F938F939F93AF930B
S11301A0BF93EF93FF9383E886BD809104018F5F33
S11301B0809304018A3F31F40E949D0098B184E049
S11301C0892788B9FF91EF91BF91AF919F918F914A
S11301D07F916F915F914F913F912F910F900FBE3F
S11301E00F901F9018951F920F920FB60F92112423
S11301F08F939F934A990FC081E0909106019111CA
S113020080E080930601882321F081E08093070138
S113021002C0109207019F918F910F900FBE0F9013
S11302201F9018951F920F920FB60F9211248F935F
S11302304B990FC087E088B9109209011092080108
S113024080910C018F5F80930C01843011F4109223
S11302500C018F910F900FBE0F901F901895E9E637
S1130260F0E080818C7F826080838CB38E7F8CBB36
S11302708DB381608DBB78940895E9E6F0E08081C8
S11302808C7F826080838CB38E7F8CBB8DB38260C5
S11302908DBB7894089585E085BD83E886BDEEE640
S11302A0F0E08081816080837894089584B18F60C8
S11302B084B987B1876087B988B1876088B98AB102
S11302C0837F8AB98BB18C608BB98AB1806F8AB90C
S11302D08BB1806F8BB987B1876087B988B187602C
S11302E088B90E943D010E942F010E944B01809118
S11302F00A0190910B01019690930B0180930A01DE
S11303008039914041F498B181E0892788B91092ED
S11303100B0110920A018091080190910901019644
S1130320909309018093080120910C01213059F424
S11303308C32914041F498B182E0892788B91092B7
S113034009011092080180910C01823079F48091A6
S11303500801909109018C32914041F498B184E0F4
S1130360892788B910920901109208010E9453004C
S113037081EE94E00197F1F700C00000B8CFF89443
S1050380FFCFA9
S10703820403020169
S9030000FC
