S0180000636F6E7461646F72446973706C6179342E73726563A8
S11300000C9434000C94A2010C9485010C945100BE
S11300100C9451000C9451000C9451000C94510018
S11300200C9451000C9451000C9451000C94510008
S11300300C9451000C9451000C9451000C945100F8
S11300400C9454010C9451000C9451000C945100E4
S11300500C9451000C9451000C9451000C945100D8
S11300600C9451000C94510011241FBECFEFD8E022
S1130070DEBFCDBF11E0A0E0B1E0E6ECF3E002C0EA
S113008005900D92A430B107D9F721E0A4E0B1E0C6
S113009001C01D92AC30B207E1F70E94E5000C9458
S11300A0E1010C940000809105018F5F80930501AC
S11300B0813061F48BB180688BB985B1807F909178
S11300C00301892B85B98BB18F7E8BB98091050192
S11300D0823061F48BB180618BB985B1807F90915E
S11300E00201892B85B98BB18F7D8BB98091050174
S11300F0833061F48BB180628BB985B1807F90913C
S11301000101892B85B98BB18F7B8BB98091050156
S1130110843071F48BB180648BB985B1807F909108
S11301200001892B85B98BB18F778BB910920501AA
S11301300895809103018F5F809303018A30E9F46D
S113014010920301809102018F5F80930201863037
S1130150A1F410920201809101018F5F809301014B
S11301608A3059F410920101809100018F5F8093CD
S113017000018A3011F4109200010895E9E6F0E0DC
S113018080818C7F826080838CB38E7F8CBB8DB3A7
S113019081608DBB78940895E9E6F0E080818C7FDE
S11301A0826080838CB38E7F8CBB8DB382608DBB69
S11301B07894089585E085BD83E886BDEEE6F0E099
S11301C08081816080837894089584B18F6084B93C
S11301D087B1876087B988B1876088B98AB1837F1E
S11301E08AB98BB18C608BB98AB1806F8AB98BB1B3
S11301F0806F8BB987B1876087B988B1876088B908
S11302008AB18B7F8AB98BB184608BB90E94CC0090
S11302100E94BE000E94DA008091080190910901B9
S1130220019690930901809308018039914041F42B
S113023098B181E0892788B91092090110920801C8
S11302408091060190910701019690930701809394
S1130250060120910A01213059F48C32914041F475
S113026098B182E0892788B910920701109206019B
S113027080910A01823079F48091060190910701FE
S11302808C32914041F498B184E0892788B9109266
S11302900701109206010E94530081EE94E0019739
S11302A0F1F700C00000B8CF1F920F920FB60F9263
S11302B011242F933F934F935F936F937F938F9367
S11302C09F93AF93BF93EF93FF9383E886BD809191
S11302D004018F5F809304018A3F31F40E949900E6
S11302E098B184E0892788B9FF91EF91BF91AF91CC
S11302F09F918F917F916F915F914F913F912F913A
S11303000F900FBE0F901F9018951F920F920FB66B
S11303100F9211248F934B990FC087E088B91092E4
S113032007011092060180910A018F5F80930A01F0
S1130330843011F410920A018F910F900FBE0F9028
S11303401F9018951F920F920FB60F9211242F939E
S11303503F934F935F936F937F938F939F93AF9349
S1130360BF93EF93FF9380910A01811109C04A99C9
S113037007C080910B018F5F80930B010E94530093
S113038080910A01813021F44A9B04C080E003C0BB
S113039080E001C081E0882319F010920B0189B13B
S11303A0FF91EF91BF91AF919F918F917F916F9149
S11303B05F914F913F912F910F900FBE0F901F901F
S10903C01895F894FFCF2C
S10703C60403020125
S9030000FC
