:100000000C9434000C9451000C9479000C94510021
:100010000C9451000C9451000C9451000C9451001C
:100020000C9451000C9451000C9451000C9451000C
:100030000C9451000C9453000C9451000C945100FA
:100040000C9451000C9451000C9451000C945100EC
:100050000C9451000C9451000C9451000C945100DC
:100060000C9451000C94510011241FBECFEFD8E026
:10007000DEBFCDBF11E0A0E0B1E0E4E4F2E002C0F9
:1000800005900D92AA30B107D9F721E0AAE0B1E0BE
:1000900001C01D92AD30B207E1F70E9408010C9437
:1000A00020010C9400001F920F920FB60F921124A2
:1000B0008F9380910A01811116C080910C018F5F8E
:1000C00080930C0180910C018C3368F010920C012C
:1000D00080910B018F5F80930B0180910B018C331A
:1000E00010F010920B018F910F900FBE0F901F9088
:1000F00018951F920F920FB60F9211248F939F9312
:1001000090910A0181E0911180E080930A019F9112
:100110008F910F900FBE0F901F9018954BB1E091EB
:100120000B018DECE89FE12D1124E695E695E6950F
:10013000F0E0E050FF4F908150E1959F9001112435
:10014000942F9F70292B2BB9E1EEF4E03197F1F752
:1001500000C000004BB1E0910B01E89F912D1124EC
:10016000969596959695990F292F220F220F920F0B
:10017000E91BF0E0E050FF4F9081F0E19F9F90017C
:100180001124942F9F70292B2BB9E1EEF4E03197C5
:10019000F1F700C000004BB1E0910C01E89FE12DA8
:1001A0001124E695E695E695F0E0E050FF4F90814A
:1001B000F0E19F9F90011124942F9F70292B2BB960
:1001C000E1EEF4E03197F1F700C000002BB1E091CF
:1001D0000C01E89F812D1124869586958695880FC0
:1001E000982F990F990F890FE81BF0E0E050FF4F0F
:1001F0009081F0E19F9FC0011124922F9F70892B65
:100200008BB981EE94E00197F1F700C000000895EA
:100210008FEF8AB9E1E8F0E0808184608083EFE6C7
:10022000F0E0808181608083E9E6F0E08081846095
:1002300080838DB382608DBB78940E948E00FDCF49
:04024000F894FFCF60
:0A0244003F065B4F666D7D077F6F7C
:00000001FF
