:100000000C9434000C9451000C9451000C94510049
:100010000C9451000C9451000C9451000C9451001C
:100020000C9451000C9451000C9451000C9451000C
:100030000C9451000C9451000C9451000C945100FC
:100040000C9451000C9451000C9451000C945100EC
:100050000C9451000C9451000C9451000C945100DC
:100060000C9451000C94510011241FBECFEFD8E026
:10007000DEBFCDBF11E0A0E0B1E0E0EFF0E002C0F4
:1000800005900D92A031B107D9F721E0A0E1B1E0D0
:1000900001C01D92A131B207E1F70E9459000C94F2
:1000A00076000C9400008FEF84B98AB18E7F8AB9F4
:1000B00008950E94530048990BC0489BFECF809141
:1000C00010018F5F80931001813110F010921001A8
:1000D000E0911001F0E0E050FF4F808185B98FE0A2
:1000E00097E20197F1F700C00000E5CFF894FFCF49
:1000F0003F065B4F666D7D077F67777C395E797160
:00000001FF
