S0130000736F6C7563696F6E332E322E7372656312
S11300000C9434000C9451000C9451000C94510045
S11300100C9451000C9451000C9451000C94510018
S11300200C9451000C9451000C9451000C94510008
S11300300C9451000C9451000C9451000C945100F8
S11300400C9451000C9451000C9451000C945100E8
S11300500C9451000C9451000C9451000C945100D8
S11300600C9451000C94510011241FBECFEFD8E022
S1130070DEBFCDBF11E0A0E0B1E0E4EFF0E002C0EC
S113008005900D92A032B107D9F721E0A0E2B1E0CA
S113009001C01D92A132B207E1F70E9453000C94F3
S11300A078000C9400008EEF8AB987B18F7E87B9EF
S11300B0349B0BC03499FECF809120018F5F8093D5
S11300C020018A3010F010922001E0912001F0E02C
S11300D0EE0FFF1FE050FF4F80818BB92FEF83ECB1
S11300E099E0215080409040E1F700C00000E0CF4B
S10700F0F894FFCFAE
S11300F43F0006005B004F0066006D007D000700B2
S11301047F00670077007C0039005E00790071008D
S9030000FC
